:020000040000FA
:0600000085EF10F0120074
:0A00060001007621000083000000D5
:0400100002000000EA
:0C001400000000000000000000000000E0
:100020000000000000FE00000000000000000000D2
:1000300000000000000000000000000000000000C0
:1000400000000000000000000000000000000000B0
:10005000000000000000FE000000FC040404040492
:100060000404040404040404040404040404040450
:100070000404040404040404040404040404FC004C
:100080000000000000000000000000000000000070
:100090000000000000000000000000000000000060
:1000A0000000000000FF0000000000000000000051
:1000B0000000000000000000000000000000000040
:1000C0000000000000000000000000000000000030
:1000D000000000000000FF000000FF000000000022
:1000E0000000000000000000000000000000000010
:1000F0000000000000000000000000000000FF0001
:1001000000000000000000000000000000000000EF
:1001100000000000000000000000000000000000DF
:100120000000000000FF00000000000000000000D0
:1001300000000000000000000000000000000000BF
:1001400000000000000000000000000000000000AF
:10015000000000000000FF000000FF0000000000A1
:10016000000000000000000000000000000000008F
:100170000000000000000000000000000000FF0080
:10018000000000000000000000000000000000006F
:10019000000000000000000000000000000000005F
:1001A0000000000000FF0000000000000000000050
:1001B000000000000000000000000000000000003F
:1001C000000000000000000000000000000000002F
:1001D000000000000000FF0000001F1010101010B1
:1001E000101010101010101010101010101010100F
:1001F00010101010101010101010101010101F0000
:1002000000000000000000000000000000000000EE
:1002100000000000000000000000000000000000DE
:100220000000000000FF00000000000000000000CF
:1002300000000000000000000000000000000000BE
:1002400000000000000000000000000000000000AE
:10025000000000000000FF00000000FF010101C1DC
:100260004141410101814141410101814141C101BE
:1002700001C14141810101C1414141010101FF0031
:10028000000000000000000000000000000000006E
:10029000000000000000000000000000000000005E
:1002A0000000000000FF000000000000000000004F
:1002B000000000000000000000000000000000003E
:1002C000000000000000000000000000000000002E
:1002D000000000000000FF00000000FF000000110F
:1002E00012121C00000F1010100007181010080741
:1002F000001F02061900001F121212000000FF006A
:1003000000000000000000000000000000000000ED
:1003100000000000000000000000000000000000DD
:100320000000000000FF00000000000000000000CE
:1003300000000000000000000000000000000000BD
:1003400000000000000000000000000000000000AD
:10035000000000000000FF00000000FF040404048F
:10036000040404040404040404040404040404044D
:100370000404040404040404040404040404FF0046
:10038000000000000000000000000000000000006D
:10039000000000000000000000000000000000005D
:1003A00000000000007F00000000000000000000CE
:1003B000000000000000000000000000000000003D
:1003C000000000000000000000000000000000002D
:1003D0000000000000007F000000007F404040401F
:1003E000404040404040404040404040404040400D
:1003F00040404040404040404040404040407F00FE
:1004000000000000000000000000000000000000EC
:1004100000000000000000005C000C000C7C287C48
:100420007C447C241048285408000C0038440044C4
:1004300038002010081038108040001010100040C4
:1004400000201008384438007C0064544844542884
:100450001C107C4C542438542004740C2854280854
:100460005438005000805000102844282828442880
:1004700010045408384C5C7814787C542838444470
:100480007C44387C54447C14043844347C107C0014
:100490007C0020403C7C106C7C40407C087C7C04D0
:1004A0007C7C447C7C14083844787C146848542450
:1004B000047C047C407C3C403C7C207C6C106C1CAC
:1004C000601C64544C7C4400081020447C000804E8
:1004D0000880808004080000000000000000000088
:1004E000000000000000000000000000000000000C
:1004F00000000000000000000000000000000000FC
:1005000000000000000000000000000000000000EB
:1005100000000000000000000000000000000000DB
:1005200000000000000000000000000000000000CB
:1005300000000000000000000000000000000000BB
:1005400000000000000000000000000000000000AB
:10055000000000000000000000000000000000009B
:10056000000000000000000000000000000000008B
:10057000000000000000000000000000000000007B
:10058000000000000000000000000000000000006B
:10059000000000000000000000000000000000005B
:1005A000000000000000000000000000000000004B
:1005B000000000000000000000000000000000003B
:1005C000000000000000000000000000000000002B
:1005D000000000000000000000000000000000001B
:1005E000065F5F0600000000070700070700001411
:1005F0007F7F147F7F1400242E6B6B3A120000461D
:100600006630180C666200307A4F5D377A48000415
:1006100007030000000000001C3E634100000000D2
:1006200041633E1C000000082A3E1C1C3E2A0808AC
:10063000083E3E080800000080E06000000000085E
:100640000808080808000000006060000000006062
:1006500030180C060301003E7F71594D7F3E00406B
:10066000427F7F40400000627359496F660000225C
:100670006349497F360000181C16537F7F500027BE
:100680006745457D3900003C7E4B497930000003C9
:100690000371790F070000367F49497F3600000655
:1006A0004F49693F1E000000006666000000000020
:1006B00080E66600000000081C366341000000244C
:1006C00024242424240000004163361C0800000276
:1006D0000351590F0600003E7F415D5D1F1E007CE7
:1006E0007E13137E7C0000417F7F49497F36001CCA
:1006F0003E634141632200417F7F41633E1C0041D4
:100700007F7F495D416300417F7F491D0103001CDC
:100710003E6341517372007F7F08087F7F000000B5
:10072000417F7F41000000307040417F3F01004128
:100730007F7F081C776300417F7F41406070007FAE
:100740007F0E1C0E7F7F007F7F060C187F7F001CB2
:100750003E6341633E1C00417F7F49090F06001E36
:100760003F21717F5E0000417F7F09197F6600266F
:100770006F4D597332000003417F7F410300007FBA
:100780007F40407F7F00001F3F60603F1F00007F71
:100790007F3018307F7F0043673C183C6743000779
:1007A0004F78784F070000476371594D6773000019
:1007B0007F7F41410000000103060C1830600000FB
:1007C00041417F7F000000080C0603060C080080F2
:1007D000808080808080800000030704000000206B
:1007E0007454543C784000417F3F4848783000388A
:1007F0007C44446C280000307848493F7F400038F2
:100800007C54545C180000487E7F49030200009825
:10081000BCA4A4F87C0400417F7F08047C7800001D
:10082000447D7D4000000060E08080FD7D0000414F
:100830007F7F10386C440000417F7F400000007CC7
:100840007C18381C7C78007C7C04047C78000038A0
:100850007C44447C38000084FCF8A4243C18001834
:100860003C24A4F8FC8400447C784C041C18004808
:100870005C54547424000000043E7F442400003C77
:100880007C40403C7C40001C3C60603C1C00003CC8
:100890007C7038707C3C00446C3810386C44009C90
:1008A000BCA0A0FC7C00004C64745C4C640000089C
:1008B000083E7741410000000000777700000041CA
:1008C00041773E08080000020301030203010070A3
:1008D000784C464C7870000E9F91B1FB4A00003A6C
:1008E0007A40407A7A4000387C54555D1900000205
:1008F000237555557D7B42217554547D79400021E7
:100900007555547C784000207457577C7840001807
:100910003CA4A4E4400000023B7D55555D1B023918
:100920007D54545D190000397D55545C1800000158
:10093000457C7C410100000203457D7D43020001AE
:10094000457D7C40000000797D1612167D7900708F
:10095000782B2B78700000447C7C55554500002096
:100960007454547C7C54547C7E0B097F7F49003244
:100970007B49497B320000327A48487A32000032A3
:100980007A4A48783000003A7B41417B7A40003A0D
:100990007A4240787840009ABAA0A0FA7A00000122
:1009A000193C66663C19013D7D40407D3D000018C4
:1009B0003C24E7E7242400687E7F49436620002B1F
:1009C0002FFCFC2F2B0000FFFF09092FF6F8A04099
:1009D000C088FE7F090302207454557D79400000D1
:1009E000447D7D410000003078484A7A320000386A
:1009F0007840427A7A40007A7A0A0A7A7000007D5A
:100A00007D19317D7D000000262F292F2F28000021
:100A1000262F292F26000030784D45602000003811
:100A20003808080808000008080808383800004F8F
:100A30006F3018CCEEBB914F6F30186C76FBF9001D
:100A400000007B7B000000081C3622081C36222296
:100A5000361C0822361C08AA005500AA005500AA18
:100A600055AA55AA55AA55DDFFAA77DDAAFF77003A
:100A70000000FFFF000000101010FFFF0000001436
:100A80001414FFFF0000001010FFFF00FFFF001014
:100A900010F0F010F0F000141414FCFC000000142E
:100AA00014F7F700FFFF000000FFFF00FFFF001436
:100AB00014F4F404FCFC0014141717101F1F00108A
:100AC000101F1F101F1F001414141F1F0000001000
:100AD0001010F0F00000000000001F1F1010101098
:100AE00010101F1F101010101010F0F01010100038
:100AF0000000FFFF10101010101010101010101038
:100B00001010FFFF101010000000FFFF141414005D
:100B100000FFFF00FFFF1000001F1F101717140039
:100B200000FCFC04F4F41414141717101717141411
:100B300014F4F404F4F4140000FFFF00F7F71414A5
:100B4000141414141414141414F7F700F7F71414ED
:100B50001414171714141410101F1F101F1F101433
:100B60001414F4F41414141010F0F010F0F0100039
:100B7000001F1F101F1F100000001F1F141414005F
:100B80000000FCFC1414140000F0F010F0F0101041
:100B900010FFFF10FFFF10141414FFFF14141410A3
:100BA00010101F1F000000000000F0F0101010FFD8
:100BB000FFFFFFFFFFFFFFF0F0F0F0F0F0F0F0FFBD
:100BC000FFFFFF0000000000000000FFFFFFFF0F1D
:100BD0000F0F0F0F0F0F0F387C446C386C4400FC64
:100BE000FE2A2A3E1400007E7E0202060600000253
:100BF0007E7E027E7E020063775D4963630000387B
:100C00007C447C3C04040080FE7E20203E1E0004C8
:100C100006027E7C06020099BDE7E7BD9900001C34
:100C20003E6B496B3E1C004C7E7301737E4C003062
:100C3000784A4F7D390000183C243C3C243C1898ED
:100C4000FC643C3E273D180000000000000000004E
:100C50000000000000000000000000000000000094
:100C60000000000000000000000000000000000084
:100C70000000000000000000000000000000000074
:100C80000000000000000000000000000000000064
:100C90000000000000000000000000000000000054
:100CA0000000000000000000000000000000000044
:100CB0000000000000000000000000000000000034
:100CC0000000000000000000000000000000000024
:070CD000000000000000001D
:080CD800D9CFE6FFE1CFD9FFFF
:100CE000080E146E14C00EF0FE0EDBCF09F084EC7B
:100CF0000FF0095000D0E552E7CFD9FF1200D9CF4D
:100D0000E6FFE1CFD9FFFE0EDBCF14F014C009F0EF
:100D1000080E0E6E84EC0FF0055000D0E552E7CFC0
:100D2000D9FF1200D9CFE6FFE1CFD9FF020EE126AD
:100D3000010EDF6EDE52800EDD6ED950FD0FE96EC2
:100D4000FF0EDA20EA6E010EDB50EFCFE7FFE7522D
:100D500004E0E8427F0BE706FCE1E76E010EE7CF17
:100D6000DBFFDBCFE6FFFC0EDBCFE9FFEA6AE9BE83
:100D7000EA68600EE926000EEA22EF50E552E71419
:100D800012E0FE0EDBCF14F014C009F0080E0E6E58
:100D900084EC0FF0DF50055204E0E846FE0B050638
:100DA000FCE1DF6E01D0DF6ADF50146E020EE15C01
:100DB00003E200D0E16AE552E16E1450E552E7CF5C
:100DC000D9FF1200D9CFE6FFE1CFD9FF050EE1260A
:100DD000DF6A010EDB6A020EDB6A030EDB6A010EBC
:100DE000F36E040EF3CFDBFFDF6A040EDF5C01E37A
:100DF00095D0010EDB6A040EF36E010EDBCFF4FF1B
:100E0000F350F45C01E377D0DF5000016225146EEB
:100E10000A0E145C6BE2010EDB506325156E100E9A
:100E2000155C64E2020EDBCFE6FF010EDBCFE6FFCE
:100E3000030EDB50E552E724E66E010EDB5063251E
:100E4000E66E70DFE552E552E552186EDF500001A4
:100E50006225166E176AD89016361736650E162656
:100E6000000E172216C0E6FF17C0E6FF18C0E6FF07
:100E7000010EDB506325E66E2FDFE552E552E7CF2A
:100E800018F0E552E7CF17F0E552E7CF16F00F0163
:100E90001624E96E000E1720EA6EEF501818E66E61
:100EA000DF5000016225146E156AD890143615368D
:100EB000650E1426000E152214C0E6FF15C0E6FFCD
:100EC000010EDB506325E66E07DFE552E552E7CF02
:100ED00015F0E552E7CF14F00F011424E96E000E6F
:100EE0001520EA6EE552E750EF6E02D0040EDB6A81
:100EF000010EDB2A80D7030EDB50040808E1030E45
:100F0000DB6A010EF36E020EF3CFDBFF05D0040E99
:100F1000F36E030EF3CFDBFFDF2A67D7040EDB503F
:100F2000146E050EE15C03E200D0E16AE552E16E69
:100F30001450E552E7CFD9FF1200D9CFE6FFE1CF39
:100F4000D9FF050EE126DF6A010EDB6A020EDB6ABD
:100F5000030EDB6A010EF36E040EF3CFDBFFDF6AD4
:100F6000040EDF5C01E395D0010EDB6A040EF36E24
:100F7000010EDBCFF4FFF350F45C01E377D0DF50D8
:100F800000016225146E0A0E145C6BE2010EDB5048
:100F90006325156E100E155C64E2020EDBCFE6FFD2
:100FA000010EDBCFE6FF030EDB50E552E724E66ED1
:100FB000010EDB506325E66EB5DEE552E552E552E3
:100FC000186EDF5000016225166E176AD89016362B
:100FD0001736650E1626000E172216C0E6FF17C03C
:100FE000E6FF18C0E6FF010EDB506325E66E74DEF7
:100FF000E552E552E7CF18F0E552E7CF17F0E5529A
:10100000E7CF16F00F011624E96E000E1720EA6EE6
:10101000EF501814E66EDF5000016225146E156A59
:10102000D89014361536650E1426000E152214C0FD
:10103000E6FF15C0E6FF010EDB506325E66E4CDED1
:10104000E552E552E7CF15F0E552E7CF14F00F0176
:101050001424E96E000E1520EA6EE552E750EF6E9B
:1010600002D0040EDB6A010EDB2A80D7030EDB50B0
:10107000040808E1030EDB6A010EF36E020EF3CFE3
:10108000DBFF05D0040EF36E030EF3CFDBFFDF2A88
:1010900067D7040EDB50146E050EE15C03E200D04E
:1010A000E16AE552E16E1450E552E7CFD9FF120034
:1010B000D9CFE6FFE1CFD9FF020EE126DF6A010EAC
:1010C000DB6ADF6A040EDF5C23E2010EDB6A040EDA
:1010D000F36E010EDBCFF4FFF350F45C17E2FC0E6D
:1010E000DBCFE6FF010EDBCFE6FFFD0EDB50E55266
:1010F000E724E66EFE0EDB50DF24E66EA9EC0BF073
:10110000E552E552E552010EDB2AE1D7DF2ADAD7B4
:10111000020EE15C02E2E16AE552E16EE552E7CFE0
:10112000D9FF1200D9CFE6FFE1CFD9FF020EE126A9
:10113000DE52010EDD6EFE0EDBCF14F0156A14BE1A
:101140001568D89014361536650E1426000E152233
:10115000FD0EDBCF16F0176A16BE17681450162462
:10116000E96E15501720EA6EEFCFDFFF010EDB505E
:10117000F36EFC0EDB5004E0D890F336E806FCE199
:10118000F350E76E010EE7CFDBFFDB50DF14146E88
:10119000020EE15C03E200D0E16AE552E16E145018
:1011A000E552E7CFD9FF1200D9CFE6FFE1CFD9FF53
:1011B000050EE126DF6A010EDB6A020EDB6A030E12
:1011C000DB6A040EDB6ADF6ADFCF14F0080EE76E1D
:1011D0001418E8AE02D0E73402D0E750145C3EE2C7
:1011E000DFCFE6FFFD0EDBCFE6FFFE0EDBCFE6FF37
:1011F00099DFE552E552E552E76E030EE7CFDBFFDC
:10120000FD0EDB50080DF350DF24040D010EF3CF6B
:10121000DBFFFE0EDB50040DF350130FE76E020EE2
:10122000E7CFDBFF030EDB500CE0010EE66EDBCFF9
:10123000E6FF020EDBCFE6FF3BDFE552E552E5526B
:101240000BD0E66A010EDBCFE6FF020EDBCFE6FF36
:101250002FDFE552E552E552DF2AB6D7050EE15CF5
:1012600002E2E16AE552E16EE552E7CFD9FF1200F2
:10127000D9CFE6FFE1CFD9FF020EE126DF6A0A0EE1
:10128000DF5C17E2010EDB6A020EF36E010EDBCFAC
:10129000F4FFF350F45C0BE2010EDBCFE6FFDFCF8F
:1012A000E6FF82DFE552E552010EDB2AEDD7DF2AA9
:1012B000E6D7020EE15C02E2E16AE552E16EE55238
:1012C000E7CFD9FF12007EDD010EE66EAFEC10F025
:1012D000E55238EF09F0D9CFE6FFE1CFD9FF040E90
:1012E000E1260C0EDF6EDE52C00EDD6E020EDB6AF2
:1012F000030EDB6ADECF06F0DECF07F0DECF08F0AC
:10130000DDCF09F0DD52DD52040EE15C03E200D0D6
:10131000E16AE552E16EE552E7CFD9FF1200D9CF7D
:10132000E6FFE1CFD9FF040EE126DF6ADE52E20ECE
:10133000DD6E020EDB6A030EDB6ADECF06F0DECF67
:1013400007F0DECF08F0DDCF09F0DD52DD52040EEC
:10135000E15C03E200D0E16AE552E16EE552E7CFDD
:10136000D9FF1200D9CFE6FFE1CFD9FF040EE12665
:101370004C0EDF6EDE52400EDD6E020EDB6A030E97
:10138000DB6ADECF06F0DECF07F0DECF08F0DDCF80
:1013900009F0DD52DD52040EE15C03E200D0E16AA7
:1013A000E552E16EE552E7CFD9FF1200D9CFE6FF53
:1013B000E1CFD9FF040EE126DF6ADE52F00EDD6ECA
:1013C000020EDB6A030EDB6ADECF06F0DECF07F02B
:1013D000DECF08F0DDCF09F0DD52DD52040EE15C16
:1013E00003E200D0E16AE552E16EE552E7CFD9FFB2
:1013F0001200D9CFE6FFE1CFD9FF040EE126FE0EA1
:10140000DB50030A2BE0010A1DE0030A0FE0010A8A
:1014100001E000D060DF06C0DEFF07C0DEFF08C0CD
:10142000DEFF09C0DDFFDD52DD5224D078DF06C0CB
:10143000DEFF07C0DEFF08C0DEFF09C0DDFFDD52B2
:10144000DD5218D0B3DF06C0DEFF07C0DEFF08C0E4
:10145000DEFF09C0DDFFDD52DD520CD083DF06C0A8
:10146000DEFF07C0DEFF08C0DEFF09C0DDFFDD5282
:10147000DD5200D0DECF06F0DECF07F0DECF08F081
:10148000DDCF09F0DD52DD52040EE15C03E200D055
:10149000E16AE552E16EE552E7CFD9FF120013DFB2
:1014A000010EE66EAFEC10F0E55263EF09F0D9CF14
:1014B000E6FFE1CFD9FF150EE126DF6A010EDB6AF8
:1014C000020EDB6A030EDB6A010EF36E040EF3CF2D
:1014D000DBFFDF6A040EDF5C5AE2010EDB6A040EFA
:1014E000F36E010EDBCFF4FFF350F45C3DE2DF500E
:1014F00000016225146E0A0E145C33E2010EDB500B
:101500006325156E100E155C2CE2020EDBCFE6FF94
:10151000010EDBCFE6FF030EDB50E552E724E66E5B
:10152000010EDB500A0FE66E92EC06F0E552E55232
:10153000E55200090CE0010EE66E0A0EE66E500E52
:10154000E66EA9EC0BF0E552E552E5520AD0E66AE8
:101550000A0EE66E500EE66EA9EC0BF0E552E5526F
:10156000E552010EDB2ABBD7030EDB50040808E16D
:10157000030EDB6A010EF36E020EF3CFDBFF05D024
:10158000040EF36E030EF3CFDBFFDF2AA3D7150E95
:10159000E15C02E2E16AE552E16EE552E7CFD9FF94
:1015A0001200D9CFE6FFE1CFD9FF020EE126DF6AB4
:1015B000010EDB6ADF6A0A0EDF5C21E2010EDB6AE4
:1015C000020EF36E010EDBCFF4FFF350F45C15E274
:1015D000156ADF34FE0B1536146E650E1426000EE8
:1015E0001522010EDB500F011424E96E000E1520A8
:1015F000EA6EEF6A010EDB2AE3D7DF2ADCD70001AF
:10160000646B020EE15C02E2E16AE552E16EE552D2
:06161000E7CFD9FF120034
:0A161600D9CFE6FFE1CFD9FF030EA4
:10162000E126836A8A9A0F0EE66EAFEC10F0E5525F
:101630008A8A8A988A908A928A940000C00EE66EFE
:10164000E66A4ED8E552E552C00EE66E010EE66E31
:1016500047D8E552E552400EE66EE66A41D8E552BB
:10166000E552400EE66E010EE66E3AD8E552E552BE
:10167000B80EE66EE66A34D8E552E552B80EE66E6C
:10168000010EE66E2DD8E552E552FE0EDB040EE1AA
:101690003F0EE66EE66A24D8E552E5523F0EE66E4E
:1016A000010EE66E1DD8E552E5520DD03E0EE66EF7
:1016B000E66A16D8E552E5523E0EE66E010EE66E7B
:1016C0000FD8E552E552E66AC2D8E552030EE15C56
:1016D00002E2E16AE552E16EE552E7CFD9FF12007E
:1016E000D9CFE6FFE1CFD9FFFE0EDB5003E08A80C1
:1016F0008A9202D08A928A82956A8A96FD0EDB507F
:101700008C6E8A8800008A9800008A908A92E5523E
:10171000E7CFD9FF1200D9CFE6FFE1CFD9FFE652DC
:10172000FE0EDB5003E08A808A9202D08A928A827F
:1017300095688A868A8800008350DF6E8A98000048
:101740008A908A92DF5000D0E552E552E7CFD9FF68
:101750001200D9CFE6FFE1CFD9FF020EE126010E3C
:10176000DB6AFE0EDB503F080DE2400E146EFE0EEB
:10177000DBCFE7FF1450E75EFE0EE7CFDBFFDE5264
:10178000010EDD6E8A94FE0EDB9EFE0EDB8CFE0EDD
:10179000DBCFE6FF010EDBCFE6FFA2DFE552E5522D
:1017A000FD0EDB50F80BE842E842E842BF0BB809F7
:1017B000E66E010EDBCFE6FF93DFE552E5528A8449
:1017C000010EDBCFE6FFA7DFE552010EDBCFE6FF20
:1017D000A2DFE552DF6E8A94FE0EDBCFE6FF010E3C
:1017E000DBCFE6FF7DDFE552E552FC0EDB500EE07D
:1017F000FD0EDB50070B146E010E145204E0E84698
:10180000FE0B1406FCE1DF10DF6E0ED0FD0EDB5088
:10181000070B146E010E145204E0E846FE0B14068A
:10182000FCE1E81CDF14DF6E8A84DFCFE6FF010EE7
:10183000DBCFE6FF55DFE552E552020EE15C02E246
:10184000E16AE552E16EE552E7CFD9FF1200D9CF48
:10185000E6FFE1CFD9FF020EE126DF6A080EDF5C6A
:1018600040E28A94400EE66EE66A3ADFE552E552BF
:10187000400EE66E010EE66E33DFE552E552B80E1D
:10188000DF10E66EE66A2CDFE552E552B80EDF1097
:10189000E66E010EE66E24DFE552E5528A84010E03
:1018A000DB6A400EF36E010EDBCFF4FFF350F45C05
:1018B00016E2FE0EDB50FF0DF350E66EE66A10DF17
:1018C000E552E552FE0EDB50FF0DF350E66E010EC1
:1018D000E66E06DFE552E552010EDB2AE2D7DF2A8B
:1018E000BDD7020EE15C02E2E16AE552E16EE5522B
:1018F000E7CFD9FF1200D9CFE6FFE1CFD9FFE652FB
:10190000DF6AFD0EDB50070802E3000E01D0010E76
:10191000146EFE0EDB507F0802E3000E01D0010EB4
:10192000141001E02AD0FE0EDBCF85F0FD0EDBCFD8
:1019300086F0FE0EDB503F080CE2400E146EFE0EE9
:10194000DBCFE7FF1450E75EFE0EE7CFDBFF010EB3
:10195000DF6E8A94FE0EDB504009E66EDFCFE6FFB5
:10196000BFDEE552E552FD0EDB50B809E66EDFCF73
:10197000E6FFB6DEE552E5528A84E552E552E7CF4E
:10198000D9FF1200D9CFE6FFE1CFD9FF050EE1263E
:10199000020EDB6AFE0EDB500A0804E10001856BD3
:1019A000862B85D0000185513F080CE2010EF36EB5
:1019B000020EF3CFDBFF400E855DE76E010EE7CF31
:1019C000DBFF03D0010E85C0DBFFFE0EDB50080DF0
:1019D000030EF3CFDBFF040EF4CFDBFFDF6A080E4C
:1019E000DF5C62E2010EDB503F0824E2400E146E21
:1019F000010EDBCFE7FF1450E75E010EE7CFDBFF00
:101A0000F36E020EF3CFDBFF8A94010EDB50400928
:101A1000E66E020EDBCFE6FF63DEE552E552B80E5E
:101A200000018611E66E020EDBCFE6FF59DEE552BD
:101A3000E5528A84FD0EDB501AE0DF50E76E030E9C
:101A4000DBCFF6FF040EDBCFF7FFE750F626000EE4
:101A5000F722D70EF626040EF7220800F550E66EA0
:101A6000020EDBCFE6FF3CDEE552E55219D0DF5037
:101A7000E76E030EDBCFF6FF040EDBCFF7FFE75078
:101A8000F626000EF722D70EF626040EF7220800DF
:101A9000F51CE66E020EDBCFE6FF22DEE552E552D4
:101AA000010EDB2ADF2A9BD7080E00018527050ED1
:101AB000E15C02E2E16AE552E16EE552E7CFD9FF6F
:101AC0001200D9CFE6FFE1CFD9FF030EE126020EC7
:101AD000DB6AFE0EDB500A0804E10001856B862BF1
:101AE0008AD0000185513F080CE2010EF36E020E10
:101AF000F3CFDBFF400E855DE76E010EE7CFDBFF26
:101B000003D0010E85C0DBFF200E146EFE0EDBCF6E
:101B1000E7FF1450E75EFE0EE7CFDBFFDF6A030E40
:101B2000DF5C66E2010EDB503F0824E2400E146EDB
:101B3000010EDBCFE7FF1450E75E010EE7CFDBFFBE
:101B4000F36E020EF3CFDBFF8A94010EDB504009E7
:101B5000E66E020EDBCFE6FFC3DDE552E552B80EBE
:101B600000018611E66E020EDBCFE6FFB9DDE5521D
:101B7000E5528A84FD0EDB501CE0FE0EDB50030DA7
:101B8000F3CF14F0F4CF15F0140E1426040E152222
:101B9000DF500F011424F66E000E1520F76E0800BA
:101BA000F550E66E020EDBCFE6FF9ADDE552E55218
:101BB0001BD0FE0EDB50030DF3CF14F0F4CF15F065
:101BC000140E1426040E1522DF500F011424F66E95
:101BD000000E1520F76E0800F51CE66E020EDBCF36
:101BE000E6FF7EDDE552E552010EDB2ADF2A97D7BC
:101BF000050E00018527030EE15C02E2E16AE55271
:101C0000E16EE552E7CFD9FF1200D9CFE6FFE1CF71
:101C1000D9FFFD0EDBCFE9FFFE0EDBCFEAFFEF5071
:101C200026E0FC0EDB500FE0FB0EDBCFE6FFFD0EE7
:101C3000DBCFE9FFFE0EDBCFEAFFEF50E66EA2DE60
:101C4000E552E5520ED0FB0EDBCFE6FFFD0EDBCFFB
:101C5000E9FFFE0EDBCFEAFFEF50E66E32DFE55222
:101C6000E552FD0EDB2AFE0E01E3DB2AD2D7E55258
:101C7000E7CFD9FF1200D9CFE6FFE1CFD9FF050E9C
:101C8000E126010EDB6A020EDB6A030EDB6A080E38
:101C9000F36E030EDBCFF4FFF350F45C42E2DF6A35
:101CA000DF5001083BE38A94400EE66EDFCFE6FF8B
:101CB00017DDE552E552030EDB50B809E66EDFCFC3
:101CC000E6FF0EDDE552E5528A84040EDB6A400E23
:101CD000F36E040EDBCFF4FFF350F45C1DE2010E53
:101CE000DBCFF6FF020EDBCFF7FF140EF626000E59
:101CF000F7220800F550E66EDFCFE6FFF1DCE55293
:101D0000E552D950010FE96EDACFEAFFEE2A000E54
:101D1000ED22040EDB2ADBD7DF2AC2D7030EDB2A33
:101D2000B6D78A908A92050EE15C02E2E16AE5523A
:0A1D3000E16EE552E7CFD9FF120083
:061D3A00D9CFE6FFE1CF66
:101D4000D9FF030EE126010EDF6E050E00016325AB
:101D5000E76E020EE7CFDBFFDBCFE6FF74D8E5527C
:101D6000DF6EDFCFE6FF020EDBCFE6FF62D8E55283
:101D7000E55200094EE0020EDB04E66E64D8E5523F
:101D8000DF6EDFCFE6FF020EDB04E66E52D8E552CF
:101D9000E55200093CE0020EDB50FE0FE66E53D820
:101DA000E552DF6EDFCFE6FF020EDB50FE0FE66E80
:101DB00040D8E552E552000928E0020EDBCFE6FFED
:101DC00056D8E5529DEC07F038EC10F0F3CF14F044
:101DD000F4CF15F0040E0D6E0E6A14C008F015C095
:101DE00009F09EEC0FF004C014F005C015F014507B
:101DF000E66EF9EC09F0E55206C060F007C061F04C
:101E000008C062F009C063F001D00ED801D00CD830
:101E100001D00AD8030EE15C02E2E16AE552E16E0C
:101E2000E552E7CFD9FF12009DEC07F00001632BCC
:101E30001200D9CFE6FFE1CFD9FF300E00D0E55236
:101E4000E7CFD9FF1200D9CFE6FFE1CFD9FFFE0ED1
:101E5000DB50070B146E010E145204E0E846FE0B33
:101E60001406FCE100D0E552E7CFD9FF1200D9CF2C
:101E7000E6FFE1CFD9FFE552E7CFD9FF120080A0FE
:101E800004D00001622B9DEC07F012000F0EC16E12
:101E90009280936A816A9568836A9468010EE66EFF
:101EA0000BEC0BF0E5523BEC0EF0D1EC0AF038EC09
:101EB00010F0F3CF14F0F4CF15F0040E0D6E0E6A8F
:101EC00014C008F015C009F09EEC0FF004C014F027
:101ED00005C015F01450E66EF9EC09F0E55206C0A5
:101EE00060F007C061F008C062F009C063F04FEC19
:101EF0000AF09ADFC4DF4FEC0AF00A0EE66EAFEC90
:081F000010F0E552F6D71200C3
:081F0800006A0EAE8AEF0FF033
:101F10000E6C001E09AE8FEF0FF0096C001EA1ECD5
:101F200010F009BE99EF0FF000AE000C096C056CC3
:101F3000000C00BE96EF0FF00188FF0C006A0EAE99
:101F4000A7EF0FF00D6C0E1EE86A0E22001E09AE00
:101F5000AFEF0FF0086C091EE86A0922001E4FEC73
:101F600010F009BEBFEF0FF000AE000C086C091EA8
:101F7000E86A0922046C051EE86A0522000C00BE0E
:101F8000B6EF0FF00188FF0C08C012F008500D02E8
:101F9000F4CF07F0F3CF06F009500E02F4CF09F0AA
:101FA000F3CF08F00D02F3500726F4500822E86A38
:101FB000092212500E02F3500726F4500822E86A54
:041FC0000922000CE6
:0C1FC400060EF66E000EF76E000EF86EB2
:101FD00000010900F5507E6F0900F5507F6F03E1A5
:101FE0007E6701D03DD00900F550796F0900F550AA
:101FF0007A6F0900F5507B6F09000900F550E96E12
:102000000900F550EA6E090009000900F5507C6FDF
:102010000900F5507D6F09000900F6CF80F0F7CF79
:1020200081F0F8CF82F079C0F6FF7AC0F7FF7BC06D
:10203000F8FF00017C5302E17D5307E00900F550F1
:10204000EE6E7C07F8E27D07F9D780C0F6FF81C00D
:10205000F7FF82C0F8FF00017E07000E7F5BBFD74D
:0220600012006C
:0E206200FE0EE3CF83F0FF0EE3CF84F01200FA
:1020700084C009F083C008F0350E0D6E450E0E6E5B
:10208000C4EC0FF0062AE86A0722079E07C084F016
:0E20900006C083F083C0F3FF84C0F4FF12008B
:02209E00056AD1
:1020A000046A100EE76ED8900836093604360536F5
:1020B0000D50045C0E50055805E30D50045E0E50A3
:0A20C000055A082AE72EF0D7120097
:0620CA00FF0EE3501A6E48
:1020D000480E01D04C0EE76EE72EFED7E76AE72EDA
:0A20E000FED71A2EF7D700001200F9
:0620EA00000EF36E00EE93
:1020F00000F0080E01D81200EA6002D0EE6AFCD7A8
:0A210000F350E9601200EE6AFCD70C
:06210A0013EE00F023EECD
:1021100000F0F86A019CE2EC0FF0BAEC10F046EC2B
:062120000FF0FBD71200D6
:0A212600FF0EE3501A6E1B0E00D0EE
:1021300001D0200EE76EE72EFED71A2EFAD700D078
:0221400012008B
:0E214200056A080EE76ED890093605360E5075
:0E215000055C02E3056E092AE72EF7D71200A0
:02215E00FF0E72
:10216000E350E84E1200000000D000D000D0E82E6E
:04217000FAD7120088
:02217400120057
:02217600010066
:020000040030CA
:010001000CF2
:0100020019E4
:010003001EDE
:0100060001F8
:00000001FF
